:1008130041542B5253540D0A00415445300D0A00E4
:1008230041542B43574D4F44453D330D0A0041542A
:100833002B43574A41503D226875617765693132D0
:1008430033222C22313131323232333333220D0A07
:100853000041542B4D515454555345524346473D43
:10086300302C312C224E554C4C222C22746573743F
:10087300266B32303769444C5A524858222C223561
:10088300353461616261633864663937356439646C
:1008930064346665653030333431616631633630D4
:1008A30038303761653131613162393234636437ED
:1008B30066653662393833373862336537666322A3
:1008C3002C302C302C22220D0A0041542B4D515434
:1008D30054434C49454E5449443D302C226B3230ED
:1008E3003769444C5A5248582E746573747C736547
:1008F300637572656D6F64653D325C2C7369676EF9
:100903006D6574686F643D686D61637368613235EA
:10091300365C2C74696D657374616D703D3137336A
:10092300363334353632313839377C220D0A0041BB
:10093300542B4D515454434F4E4E3D302C22696F2E
:10094300742D30367A303062623966796679657132
:10095300372E6D7174742E696F746875622E616CB5
:100963006979756E63732E636F6D222C313838335A
:100973002C310D0A0041542B4D5154545355423DD3
:10098300302C222F6B32303769444C5A5248582F3F
:10099300746573742F757365722F6C6564222C31C3
:1009A3000D0A0041542B4D51545450554252415756
:1009B3003D302C222F6B32303769444C5A52485801
:1009C3002F746573742F757365722F6C6564222C95
:1009D30032382C312C300D0A0068656C6C6F20772F
:1009E3006F726C64007B22706172616D73223A7B5B
:1009F300224C69676874537769746368223A256483
:030A03007D7D00F6
:1011DD001808FF0813FF081CFF0823FF0831FF083C
:0A11ED0054FF08CDFF0932FF097816
:100FD100755203E4F551FB7A0079517F03120382C4
:100FE1007B007A0079517F04120382755410E4F575
:0B0FF10053FB7A0079537F0202038259
:10112C007551407552017556007555C2755401754F
:10113C005300755801E4F559FB7A0079517F01127F
:09114C000A067D017F0102107CFE
:0A11BC00E4F56AE56AC39568501671
:1011C6007400256AF582E43400F583E0F56BFF12BE
:0211D60012669F
:0411D800056A80E341
:0111DC0022F0
:10000300121243E4F5577FC81212560557E557C33A
:0D001300941040F2AB54AA55A956021243B6
:0610BA008B518A5289539C
:1010C000E4F555AB51AA52A95375F003E555A4F5C3
:1010D0008285F08312073E121243E4F5547FC81252
:1010E00012560554E554C3940840F20555E555C31E
:0410F000940840CF51
:0110F40022D9
:100BDE007522FFE4F5237524FF7525097526A612E7
:100BEE000FD112112CD2ACD2AFD2A4D2C07BFF7ACD
:100BFE000979DC1212437B007A0079081210BA12BE
:100C0E000E518F22E522F4600BE522B43004C2C0EF
:070C1E008002D2C020A4E80F
:100C2500754F00755001B2C030C005E4F54FF55061
:100C35007FFA1212567554FF7555097556E8854F9A
:100C4500578550587B007A00792712008275540029
:0F0C5500755500755627AB24AA25A92612000352
:020C640080A767
:10038200EFD3940740037FFF221205D6FED39403D6
:1003920040037FFF22EF7041EE700B9000011205C7
:1003A200EFF4529352941205D6B4010B900001124D
:1003B20005EF4293F452941205D6FEB4020A90005D
:1003C200011205EF42934294EEB4030D9000011224
:1003D20005EFFEF45293EE4294EF6401704312056E
:1003E200D6FE700B9000011205EFF452915292EE7C
:1003F200B4010B9000011205EF4291F452921205E2
:10040200D6B4020A9000011205EF429142921205FF
:10041200D6B4030D9000011205EFFEF45291EE42A4
:1004220092EF640270431205D6FE700B9000011227
:1004320005EFF452955296EEB4010B9000011205AD
:10044200EF4295F452961205D6B4020A90000112B8
:1004520005EF429542961205D6B4030D90000112A3
:1004620005EFFEF45295EE4296EF640370431205D7
:10047200D6FE700B9000011205EFF452B152B2EEAB
:10048200B4010B9000011205EF42B1F452B2120511
:10049200D6B4020A9000011205EF42B142B212052F
:1004A200D6B4030D9000011205EFFEF452B1EE42F4
:1004B200B2EF640470431205D6FE700B9000011275
:1004C20005EFF452B352B4EEB4010B9000011205E1
:1004D200EF42B3F452B41205D6B4020A90000112EC
:1004E20005EF42B342B41205D6B4030D90000112D7
:1004F20005EFFEF452B3EE42B4EF64057043120509
:10050200D6FE700B9000011205EFF452C952CAEEEA
:10051200B4010B9000011205EF42C9F452CA120550
:10052200D6B4020A9000011205EF42C942CA12056E
:10053200D6B4030D9000011205EFFEF452C9EE424B
:10054200CAEF640670431205D6FE700B90000112CA
:1005520005EFF452CB52CCEEB4010B900001120520
:10056200EF42CBF452CC1205D6B4020A900001122B
:1005720005EF42CB42CC1205D6B4030D9000011216
:1005820005EFFEF452CBEE42CCEF64077043120546
:10059200D6FF700B9000011205EFF452E152E2EF28
:1005A200B4010B9000011205EF42E1F452E2120590
:1005B200D6B4020A9000011205EF42E142E21205AE
:1005C200D6B4030D9000011205EFFFF452E1EF42A1
:0405D200E27F0022A2
:100F1700EFD3940140037FFF22EDD3940340037F77
:100F2700FF22EF7004C2A98002D2A9ED700553B762
:100F3700FDC2B9BD010553B7FDD2B9BD020543B71F
:0E0F470002C2B9BD030543B702D2B97F002232
:100F5500EFD3940140037FFF22EDD3940340037F39
:100F6500FF22EF7004C2AB8002D2ABED700553B720
:100F7500F7C2BBBD010553B7F7D2BBBD020543B7E9
:0E0F850008C2BBBD030543B708D2BB7F0022E4
:10117800EFD3940140037FFF22EDD3940340037F14
:10118800FF22EF25E025E0FFE5AF54FB4FF5AFE484
:02119800FF2234
:10119A00EFD3940140037FFF22EDD3940340037FF2
:1011AA00FF22EFC43354E0FFE5AF54DF4FF5AFE45D
:0211BA00FF2212
:10115500EFD3940140037FFF22EDD3940340037F37
:10116500FF22EFC4333354C0FFE5AF54BF4FF5AF93
:03117500E4FF2272
:100F9300EFD3940140037FFF22EDD3940340037FFB
:100FA300FF22EF7004C2A88002D2A8ED700553B7E8
:100FB300FEC2B8BD010553B7FED2B8BD020543B7A3
:0E0FC30001C2B8BD030543B701D2B87F0022BA
:10100000EFD3940140037FFF22EDD3940340037F8D
:10101000FF22EF7004C2AA8002D2AAED700553B776
:10102000FBC2BABD010553B7FBD2BABD020543B737
:0E10300004C2BABD030543B704D2BA7F002242
:10122B00EFD3940140037FFF22EFC454F0FFE58F0F
:08123B0054EF4FF58FE4FF2290
:10121200EFD3940140037FFF22EFC43354E0FFE594
:091222008F54DF4FF58FE4FF2229
:1011F800EFD3940140037FFF22EFC4333354C0FF81
:0A120800E58F54BF4FF58FE4FF227D
:10103E00EFD3940140037FFF22EDD3940340037F4F
:10104E00FF22EF7004C2AD8002D2ADED700553B732
:10105E00DFC2BDBD010553B7DFD2BDBD020543B72B
:0E106E0020C2BDBD030543B720D2BD7F0022C6
:100D3900EDD3940340037FFF22EF30E10543E62022
:100D4900800353E6DFEF30E00543E610800353E606
:100D5900EFED700653B6DF53B5DFBD010653B6DFBD
:100D690043B520BD020643B62053B5DFBD03064394
:080D7900B62043B5207F0022E3
:100CE000EFD3940140037FFF22EBD3940340037FB3
:100CF000FF22BF0112ED90FE817006E0547FF0806C
:100D000011E04480F0800BEF700890FE83E0548780
:100D10004DF0EB700653B6DF53B5DFBB010653B69B
:100D2000DF43B520BB020643B62053B5DFBB030645
:090D300043B62043B5207F0022E8
:10107C00EFD3940140037FFF22EDD3940340037F11
:10108C00FF22EF7004C2AC8002D2ACED700553B7F6
:10109C00EFC2BCBD010553B7EFD2BCBD020543B7CF
:0E10AC0010C2BCBD030543B710D2BC7F0022AA
:100ED700EFD3940140037FFF22EDD3940340037FB8
:100EE700FF22E5AF54FE4FF5AFED700653B6FE5344
:100EF700B5FEBD010653B6FE43B501BD020643B6B6
:100F07000153B5FEBD030643B60143B5017F002279
:100D8100EFD3940140037FFF22EDD3940340037F0F
:100D9100FF22EF33333354F8FFE5AF54F74FF5AF8C
:100DA100ED700653EEFE53DFFEBD010653EEFE432A
:100DB100DF01BD020643EE0153DFFEBD030643EE34
:070DC1000143DF017F002266
:100DC800EFD3940140037FFF22EDD3940340037FC8
:100DD800FF22EFC454F0FFE5AF54EF4FF5AFED70CD
:100DE8000653EEFD53DFFDBD010653EEFD43DF0262
:100DF800BD020643EE0253DFFDBD030643EE024388
:050E0800DF027F002263
:100E0D00EFD3940140037FFF22EDD3940340037F82
:100E1D00FF22EF25E0FFE5AF54FD4FF5AFED700676
:100E2D0053B6FD53B5FDBD010653B6FD43B502BD29
:100E3D00020643B60253B5FDBD030643B60243B5E4
:040E4D00027F0022FE
:100C6600EFD3948140037FFF22EBD3940340037FAD
:100C7600FF22EF247F603004705890FEC4EDF0EB45
:100C8600700653B6FB53B5FBBB010653B6FB43B523
:100C960004BB020643B60453B5FBEB64037038434A
:100CA600B60443B504803090FEE4EDF0EB700653D5
:100CB600B6F753B5F7BB010653B6F743B508BB0203
:100CC6000643B60853B5F7BB030D43B60843B5084C
:0A0CD600800590FEE4EDF07F00229F
:1010F500EDD394035026ED700653EEFB53DFFBBD95
:10110500010653EEFB43DF04BD020643EE0453DF45
:10111500FBBD030B43EE0443DF0480037FFF2290F6
:07112500FE62EFF07F0022E3
:060A06008B5A8A5B895C3B
:100A0C00EF64016002614FF565F566F567F568F511
:100A1C0069FF7E80900080E4F0A3DEFCE4FF7E8022
:100A2C00900000E4F0A3DEFC7E00AB5AAA5BA95C4C
:100A3C001205D6FFE598543F4FF598EF64C0600758
:100A4C00EF64406002610490000212070E7F807E0A
:100A5C008D7D5B7C001206588F608E5F8D5E8C5D89
:100A6C00E4FFFE7D01FCAB60AA5FA95EA85DC3122A
:100A7C0006EA40037FFF22C3E49560F560E4955FCE
:100A8C00F55F7401955EF55EE4955DF55DAB5AAA74
:100A9C005BA95C9000011205EFFB6401702CC28E07
:100AAC00538EFE5389BF5389CF438E40AF60AE5FE8
:100ABC00AD5EAC5D78081206FB8F8D85608BC2AB8A
:100ACC005389BF538FFDD28E8062EB640270265324
:100ADC008EEF438E01538EF7438E04AF60AE5FAD45
:100AEC005EAC5D78081206FB8FD68560D753AFFBE2
:100AFC00438E1080377FFF22AB5AAA5BA95C12058C
:100B0C00D6FF70139000081205EFB40105438E2038
:100B1C00801A538EDF8015EFB480119000081205F7
:100B2C00EFB40105438780800353877FAB5AAA5BE0
:100B3C00A95C9000071205EF7004C29C8002D29C45
:050B4C007F00227FFF85
:010B51002281
:0A1266008F99756701E56770FC229F
:101243001205D6FF600C121266740129F9E43AFA0A
:0312530080EE2208
:100E51007551FF7F32121256E568D39449402CE553
:060E610069D39400402556
:100E6700E4F5527F32121256E568D3944840117563
:100E7700524874002552F582E43400F583E0F551B9
:050E8700E4F569F568C7
:070E8C00E4F569F568AF51C0
:010E9300223C
:05127000AE070212664A
:0F1256007D607C09ED1D70011C144C70F7DFF1F9
:011265002266
:03002300020E9436
:100E9400C0E0C083C082C0D075D000C007309820A5
:100EA400C298E568C394804003756800AF6805681C
:100EB40074002FF582E43400F583E599F075690533
:100EC400309905C299756700D007D0D0D082D083FD
:030ED400D0E03239
:03000000020B529E
:0C0B5200787FE4F6D8FD75816B020B99EA
:1005D600BB010689828A83E0225002E722BBFE0223
:0905E600E32289828A83E4932256
:1005EF00BB010CE58229F582E5833AF583E02250C1
:1005FF0006E92582F8E622BBFE06E92582F8E2220B
:0D060F00E58229F582E5833AF583E4932224
:10061C0075F008758200EF2FFFEE33FECD33CDCC95
:10062C0033CCC58233C5829BED9AEC99E582984018
:10063C000CF582EE9BFEED9AFDEC99FC0FD5F0D6F5
:10064C00E4CEFBE4CDFAE4CCF9A88222B800C1B91F
:10065C000059BA002DEC8BF084CFCECDFCE5F0CB5D
:10066C00F97818EF2FFFEE33FEED33FDEC33FCEB96
:10067C0033FB10D703994004EB99FB0FD8E5E4F951
:10068C00FA227818EF2FFFEE33FEED33FDEC33FC3E
:10069C00C933C910D7059BE99A4007EC9BFCE99A32
:1006AC00F90FD8E0E4C9FAE4CCFB2275F010EF2F77
:1006BC00FFEE33FEED33FDCC33CCC833C810D70777
:1006CC009BEC9AE899400AED9BFDEC9AFCE899F8B2
:0E06DC000FD5F0DAE4CDFBE4CCFAE4C8F92245
:1006EA00EB9FF5F0EA9E42F0E99D42F0E89C45F066
:0106FA0022DD
:1006FB00E8600FECC313FCED13FDEE13FEEF13FFDD
:03070B00D8F12200
:10070E00BB010DE58229F582E5833AF58302078D5B
:10071E005007E92582F8020780BBFE07E92582F81B
:10072E00020799E58229F582E5833AF5830207A649
:10073E00BB010DE58229F582E5833AF5830207CFE9
:10074E005007E92582F80207B6BBFE07E92582F8B5
:10075E000207D8E58229F582E5833AF5830207E19F
:10002600E5602454F8E605602278513007027854DA
:10003600E475F0011207BF0205D62000EB7F2ED231
:10004600008018EF540F2490D43440D4FF30040BB2
:10005600EF24BFB41A0050032461FFE56160021566
:10006600610564E5647002056330070D7851E47537
:10007600F0011207BFEF02076E0212707403D20777
:100086008003E4C207F5608B518A528953E4F56117
:10009600F563F564E56160077F2012006180F57500
:1000A60062FFC201C200C202C203C205C206C20882
:1000B60012002FFF700D3007057F00120072AF642B
:1000C600AE6322B4255FC2D5C20412002FFF24D02E
:1000D600B40A00501A75F00A786130D50508B6FFE3
:1000E6000106C6A426F620D5047002D20380D924C0
:1000F600CFB41A00EF5004C2E5D204020272D20154
:1001060080C6D20080C0D20280BCD2D580BAD205C9
:1001160080B47F201200612002077401B56100409F
:10012600F1120026FF12006102009AD208D2068060
:1001360095120026FB120026FA120026F94A4B7089
:100146000679437A037BFF20022EE561602A7E0052
:100156008E827583001205EF60060EEE656270F002
:10016600C2D5EBC0E0EAC0E0E9C0E0EE1202B9D0C9
:10017600E0F9D0E0FAD0E0FB1205D6FF60AAEBC0AA
:10018600E0EAC0E0E9C0E0120061D0E02401F9D065
:10019600E03400FAD0E0FBE5620460DCD562D98089
:1001A600877BFF7A0279B5D202809C79108002792A
:1001B60008C206C2088008D2D5790A8004790AC224
:1001C600D5E562047002F562E4FAFDFEFF12002630
:1001D600FC7B08200113120026FD7B1030000A125A
:1001E6000026FE120026FF7B20EC3382D592D550E6
:1001F60013C3E43000069FFFE49EFEE42001039D46
:10020600FDE49CFCE4CBF8C201EC700CCFCECDCC67
:10021600E824F8F870F38017C3EF33FFEE33FEEDF2
:1002260033FDEC33FCEB33FB994002FB0FD8E9EBD3
:10023600300105F8D0E0C448B201C0E00AEC4D4EEA
:100246004F78207B0070C2EAB5620040BCC0E01265
:1002560002BBD0F0D0E0200104C4C0E0C4B201C0AB
:10026600F012004AD0F0D5F0EB02009A1207ED0129
:10027600375301B15801084C01044201B54F01BD85
:0F0286004401BD49011D4301C35501A74601A70E
:100295004501A747036350010C2D01102E01332B97
:1002A500011423013120034C2A00CC480000012B06
:1002B5003F3F3F00790AA2D5200314300509B91044
:1002C500020404B9080104A2D52006025001042045
:1002D50002689202B561005034C0E07F20300319F6
:1002E5007F30A20272067205500F120312C202C2BB
:1002F50006C205C2087F30800F300503E9C0E01251
:100305000061300503D0E0F9D0E0B561CC300517C8
:100315007F30B9100C1200617F583004077F788058
:1003250003B908031200613002057F2D0200617FC9
:10033500202008F87F2B2006F322920280CF286E1A
:10034500756C6C2900D2011200263001F8C20178C3
:100355006130D50108F60200CC2D504349581200F2
:10036500262403B405004001E490035E9312005275
:0D037500743A120052D2037561040201B106
:100B5E00020BDEE493A3F8E493A34003F68001F2C4
:100B6E0008DFF48029E493A3F85407240CC8C33398
:100B7E00C4540F4420C8834004F456800146F6DF67
:100B8E00E4800B01020408102040809011DDE47E09
:100B9E00019360BCA3FF543F30E509541FFEE4935C
:100BAE00A360010ECF54C025E060A840B8E493A323
:100BBE00FAE493A3F8E493A3C8C582C8CAC583CA4E
:100BCE00F0A3C8C582C8CAC583CADFE9DEE780BE06
:0111F70000F7
:10076E00BB010689828A83F0225002F722BBFE016A
:02077E00F32264
:0D078000E6FB08E6F908E6FA08E6CBF822E9
:0C078D00E0F8A3E0F9A3E0FAA3E0FB22EF
:0D079900E2FB08E2F908E2FA08E2CBF822E0
:1007A600E493F8740193F9740293FA740393FB22A9
:0907B600E6FB08E6FA08E6F92268
:1007BF00FAE6FB0808E6F925F0F618E6CA3AF6223B
:0907CF00E0FBA3E0FAA3E0F9222B
:0907D800E2FB08E2FA08E2F92252
:0C07E100E493FB740193FA740293F92274
:1007ED00D083D082F8E4937012740193700DA3A39B
:1007FD0093F8740193F5828883E4737402936860AF
:06080D00EFA3A3A380DFAE
:00000001FF
